{
  "contractName": "BugBounty",
  "abi": [
    {
      "inputs": [],
      "stateMutability": "nonpayable",
      "type": "constructor"
    },
    {
      "inputs": [
        {
          "internalType": "address",
          "name": "_company",
          "type": "address"
        },
        {
          "internalType": "uint256",
          "name": "_bounty",
          "type": "uint256"
        },
        {
          "internalType": "string",
          "name": "_bugSHA",
          "type": "string"
        }
      ],
      "name": "Report",
      "outputs": [],
      "stateMutability": "nonpayable",
      "type": "function"
    },
    {
      "inputs": [
        {
          "internalType": "string",
          "name": "_bugSHA",
          "type": "string"
        }
      ],
      "name": "Accept",
      "outputs": [],
      "stateMutability": "payable",
      "type": "function",
      "payable": true
    },
    {
      "inputs": [
        {
          "internalType": "string",
          "name": "_bugSHA",
          "type": "string"
        }
      ],
      "name": "Reject",
      "outputs": [],
      "stateMutability": "nonpayable",
      "type": "function"
    },
    {
      "inputs": [
        {
          "internalType": "string",
          "name": "_bugSHA",
          "type": "string"
        }
      ],
      "name": "GetBugInfo",
      "outputs": [
        {
          "components": [
            {
              "internalType": "address",
              "name": "company",
              "type": "address"
            },
            {
              "internalType": "address payable",
              "name": "reporter",
              "type": "address"
            },
            {
              "internalType": "uint256",
              "name": "bounty",
              "type": "uint256"
            },
            {
              "internalType": "enum BugBounty.State",
              "name": "state",
              "type": "uint8"
            },
            {
              "internalType": "string",
              "name": "bugSHA",
              "type": "string"
            }
          ],
          "internalType": "struct BugBounty.Bug",
          "name": "",
          "type": "tuple"
        }
      ],
      "stateMutability": "view",
      "type": "function",
      "constant": true
    },
    {
      "inputs": [],
      "name": "balance",
      "outputs": [
        {
          "internalType": "uint256",
          "name": "",
          "type": "uint256"
        }
      ],
      "stateMutability": "view",
      "type": "function",
      "constant": true
    }
  ],
  "bytecode": "0x60a060405234801561001057600080fd5b503373ffffffffffffffffffffffffffffffffffffffff1660808173ffffffffffffffffffffffffffffffffffffffff1660601b8152505060805160601c6112ce610065600039806104e652506112ce6000f3fe60806040526004361061004a5760003560e01c80632e6b61ed1461004f5780635a074a7a14610078578063b69ef8a8146100a1578063c356d4f9146100cc578063d60c151a146100e8575b600080fd5b34801561005b57600080fd5b5061007660048036038101906100719190610cee565b610125565b005b34801561008457600080fd5b5061009f600480360381019061009a9190610d55565b6102ad565b005b3480156100ad57600080fd5b506100b66104e2565b6040516100c391906110da565b60405180910390f35b6100e660048036038101906100e19190610d55565b610578565b005b3480156100f457600080fd5b5061010f600480360381019061010a9190610d55565b610809565b60405161011c91906110b8565b60405180910390f35b600080826040516101369190611001565b90815260200160405180910390209050600073ffffffffffffffffffffffffffffffffffffffff168160010160009054906101000a900473ffffffffffffffffffffffffffffffffffffffff1673ffffffffffffffffffffffffffffffffffffffff16146101d9576040517f08c379a00000000000000000000000000000000000000000000000000000000081526004016101d090611058565b60405180910390fd5b838160000160006101000a81548173ffffffffffffffffffffffffffffffffffffffff021916908373ffffffffffffffffffffffffffffffffffffffff160217905550338160010160006101000a81548173ffffffffffffffffffffffffffffffffffffffff021916908373ffffffffffffffffffffffffffffffffffffffff16021790555082816002018190555081816004019080519060200190610280929190610b4b565b5060008160030160006101000a81548160ff021916908360028111156102a257fe5b021790555050505050565b600080826040516102be9190611001565b90815260200160405180910390209050600073ffffffffffffffffffffffffffffffffffffffff168160010160009054906101000a900473ffffffffffffffffffffffffffffffffffffffff1673ffffffffffffffffffffffffffffffffffffffff161415610362576040517f08c379a000000000000000000000000000000000000000000000000000000000815260040161035990611038565b60405180910390fd5b3373ffffffffffffffffffffffffffffffffffffffff168160000160009054906101000a900473ffffffffffffffffffffffffffffffffffffffff1673ffffffffffffffffffffffffffffffffffffffff16148061040f57503373ffffffffffffffffffffffffffffffffffffffff168160010160009054906101000a900473ffffffffffffffffffffffffffffffffffffffff1673ffffffffffffffffffffffffffffffffffffffff16145b61044e576040517f08c379a000000000000000000000000000000000000000000000000000000000815260040161044590611098565b60405180910390fd5b6000600281111561045b57fe5b8160030160009054906101000a900460ff16600281111561047857fe5b146104b8576040517f08c379a00000000000000000000000000000000000000000000000000000000081526004016104af90611078565b60405180910390fd5b60028160030160006101000a81548160ff021916908360028111156104d957fe5b02179055505050565b60007f000000000000000000000000000000000000000000000000000000000000000073ffffffffffffffffffffffffffffffffffffffff163373ffffffffffffffffffffffffffffffffffffffff1614610572576040517f08c379a000000000000000000000000000000000000000000000000000000000815260040161056990611098565b60405180910390fd5b47905090565b600080826040516105899190611001565b90815260200160405180910390209050600073ffffffffffffffffffffffffffffffffffffffff168160010160009054906101000a900473ffffffffffffffffffffffffffffffffffffffff1673ffffffffffffffffffffffffffffffffffffffff16141561062d576040517f08c379a000000000000000000000000000000000000000000000000000000000815260040161062490611038565b60405180910390fd5b3373ffffffffffffffffffffffffffffffffffffffff168160000160009054906101000a900473ffffffffffffffffffffffffffffffffffffffff1673ffffffffffffffffffffffffffffffffffffffff16146106bf576040517f08c379a00000000000000000000000000000000000000000000000000000000081526004016106b690611098565b60405180910390fd5b600060028111156106cc57fe5b8160030160009054906101000a900460ff1660028111156106e957fe5b14610729576040517f08c379a000000000000000000000000000000000000000000000000000000000815260040161072090611078565b60405180910390fd5b3481600201541115610770576040517f08c379a000000000000000000000000000000000000000000000000000000000815260040161076790611018565b60405180910390fd5b8060010160009054906101000a900473ffffffffffffffffffffffffffffffffffffffff1673ffffffffffffffffffffffffffffffffffffffff166108fc82600201549081150290604051600060405180830381858888f193505050501580156107de573d6000803e3d6000fd5b5060018160030160006101000a81548160ff0219169083600281111561080057fe5b02179055505050565b610811610bd9565b600080836040516108229190611001565b90815260200160405180910390209050600073ffffffffffffffffffffffffffffffffffffffff168160010160009054906101000a900473ffffffffffffffffffffffffffffffffffffffff1673ffffffffffffffffffffffffffffffffffffffff1614156108c6576040517f08c379a00000000000000000000000000000000000000000000000000000000081526004016108bd90611038565b60405180910390fd5b3373ffffffffffffffffffffffffffffffffffffffff168160000160009054906101000a900473ffffffffffffffffffffffffffffffffffffffff1673ffffffffffffffffffffffffffffffffffffffff16148061097357503373ffffffffffffffffffffffffffffffffffffffff168160010160009054906101000a900473ffffffffffffffffffffffffffffffffffffffff1673ffffffffffffffffffffffffffffffffffffffff16145b6109b2576040517f08c379a00000000000000000000000000000000000000000000000000000000081526004016109a990611098565b60405180910390fd5b806040518060a00160405290816000820160009054906101000a900473ffffffffffffffffffffffffffffffffffffffff1673ffffffffffffffffffffffffffffffffffffffff1673ffffffffffffffffffffffffffffffffffffffff1681526020016001820160009054906101000a900473ffffffffffffffffffffffffffffffffffffffff1673ffffffffffffffffffffffffffffffffffffffff1673ffffffffffffffffffffffffffffffffffffffff168152602001600282015481526020016003820160009054906101000a900460ff166002811115610a9257fe5b6002811115610a9d57fe5b8152602001600482018054600181600116156101000203166002900480601f016020809104026020016040519081016040528092919081815260200182805460018160011615610100020316600290048015610b3a5780601f10610b0f57610100808354040283529160200191610b3a565b820191906000526020600020905b815481529060010190602001808311610b1d57829003601f168201915b505050505081525050915050919050565b828054600181600116156101000203166002900490600052602060002090601f016020900481019282610b815760008555610bc8565b82601f10610b9a57805160ff1916838001178555610bc8565b82800160010185558215610bc8579182015b82811115610bc7578251825591602001919060010190610bac565b5b509050610bd59190610c3f565b5090565b6040518060a00160405280600073ffffffffffffffffffffffffffffffffffffffff168152602001600073ffffffffffffffffffffffffffffffffffffffff1681526020016000815260200160006002811115610c3257fe5b8152602001606081525090565b5b80821115610c58576000816000905550600101610c40565b5090565b6000610c6f610c6a84611126565b6110f5565b905082815260208101848484011115610c8757600080fd5b610c92848285611201565b509392505050565b600081359050610ca98161126a565b92915050565b600082601f830112610cc057600080fd5b8135610cd0848260208601610c5c565b91505092915050565b600081359050610ce881611281565b92915050565b600080600060608486031215610d0357600080fd5b6000610d1186828701610c9a565b9350506020610d2286828701610cd9565b925050604084013567ffffffffffffffff811115610d3f57600080fd5b610d4b86828701610caf565b9150509250925092565b600060208284031215610d6757600080fd5b600082013567ffffffffffffffff811115610d8157600080fd5b610d8d84828501610caf565b91505092915050565b610d9f816111a0565b82525050565b610dae8161118e565b82525050565b610dbd816111ef565b82525050565b6000610dce82611156565b610dd88185611161565b9350610de8818560208601611210565b610df181611245565b840191505092915050565b6000610e0782611156565b610e118185611183565b9350610e21818560208601611210565b80840191505092915050565b6000610e3a600e83611172565b91507f496e76616c696420616d6f756e740000000000000000000000000000000000006000830152602082019050919050565b6000610e7a600d83611172565b91507f427567206e6f7420666f756e64000000000000000000000000000000000000006000830152602082019050919050565b6000610eba601d83611172565b91507f54686973206275672077617320616c7265616479207265706f727465640000006000830152602082019050919050565b6000610efa600d83611172565b91507f496e76616c6964207374617465000000000000000000000000000000000000006000830152602082019050919050565b6000610f3a600e83611172565b91507f4e6f7420617574686f72697a65640000000000000000000000000000000000006000830152602082019050919050565b600060a083016000830151610f856000860182610da5565b506020830151610f986020860182610d96565b506040830151610fab6040860182610fe3565b506060830151610fbe6060860182610db4565b5060808301518482036080860152610fd68282610dc3565b9150508091505092915050565b610fec816111e5565b82525050565b610ffb816111e5565b82525050565b600061100d8284610dfc565b915081905092915050565b6000602082019050818103600083015261103181610e2d565b9050919050565b6000602082019050818103600083015261105181610e6d565b9050919050565b6000602082019050818103600083015261107181610ead565b9050919050565b6000602082019050818103600083015261109181610eed565b9050919050565b600060208201905081810360008301526110b181610f2d565b9050919050565b600060208201905081810360008301526110d28184610f6d565b905092915050565b60006020820190506110ef6000830184610ff2565b92915050565b6000604051905081810181811067ffffffffffffffff8211171561111c5761111b611243565b5b8060405250919050565b600067ffffffffffffffff82111561114157611140611243565b5b601f19601f8301169050602081019050919050565b600081519050919050565b600082825260208201905092915050565b600082825260208201905092915050565b600081905092915050565b6000611199826111c5565b9050919050565b60006111ab826111c5565b9050919050565b60008190506111c082611256565b919050565b600073ffffffffffffffffffffffffffffffffffffffff82169050919050565b6000819050919050565b60006111fa826111b2565b9050919050565b82818337600083830152505050565b60005b8381101561122e578082015181840152602081019050611213565b8381111561123d576000848401525b50505050565bfe5b6000601f19601f8301169050919050565b6003811061126757611266611243565b5b50565b6112738161118e565b811461127e57600080fd5b50565b61128a816111e5565b811461129557600080fd5b5056fea2646970667358221220aa68661aae8dd82c9eebc98420b2d4c8e74482c33df39fe2eaa23b895a4b3d9d64736f6c63430007060033",
  "immutableReferences": {
    "19": [
      {
        "length": 32,
        "start": 1254
      }
    ]
  },
  "source": "// SPDX-License-Identifier: GPL-3.0\n\npragma solidity >=0.7.0 <0.8.0;\npragma abicoder v2;\n\ncontract BugBounty {\n\n    enum State {\n        Open,\n        Accepted,\n        Rejected\n    }\n\n    struct Bug {\n        address company;\n        address payable reporter;\n        uint bounty;\n        State state;\n        string bugSHA;\n    }\n    \n    address private immutable owner;\n    mapping (string => Bug) private bugs;\n\n    constructor() {\n        owner = msg.sender;\n    }\n\n    function Report(address _company, uint _bounty, string memory _bugSHA) external {\n        Bug storage newBug = bugs[_bugSHA];\n        require(newBug.reporter == address(0x0), \"This bug was already reported\");\n\n        newBug.company = _company;\n        newBug.reporter = msg.sender;\n        newBug.bounty = _bounty;\n        newBug.bugSHA = _bugSHA;\n        newBug.state = State.Open;\n    }\n\n    function Accept(string memory _bugSHA) external payable {\n        Bug storage bug = bugs[_bugSHA];\n        require(bug.reporter != address(0x0), \"Bug not found\");\n        require(bug.company == msg.sender, \"Not authorized\");\n        require(bug.state == State.Open, \"Invalid state\");\n        require(bug.bounty <= msg.value, \"Invalid amount\");\n    \n        bug.reporter.transfer(bug.bounty);\n        bug.state = State.Accepted;\n    }\n    \n    function Reject(string memory _bugSHA) external {\n        Bug storage bug = bugs[_bugSHA];\n        require(bug.reporter != address(0x0), \"Bug not found\");\n        require(bug.company == msg.sender || bug.reporter == msg.sender, \"Not authorized\");\n        require(bug.state == State.Open, \"Invalid state\");\n    \n        bug.state = State.Rejected;\n    }\n\n    function GetBugInfo(string memory _bugSHA) external view returns (Bug memory) {\n        Bug storage bug = bugs[_bugSHA];\n        require(bug.reporter != address(0x0), \"Bug not found\");\n        require(bug.company == msg.sender || bug.reporter == msg.sender, \"Not authorized\");\n\n        return bug;\n    }\n\n    function balance() external view returns (uint) {\n        require(msg.sender == owner, \"Not authorized\");\n        return address(this).balance;\n    }\n}\n",
  "sourcePath": "/home/jwendell/src/jwendell/bugbounty/contracts/BugBounty.sol",
  "compiler": {
    "name": "solc",
    "version": "0.7.6+commit.7338295f.Emscripten.clang"
  },
  "schemaVersion": "3.3.4",
  "updatedAt": "2021-04-26T18:42:37.324Z",
  "networkType": "ethereum",
  "devdoc": {
    "kind": "dev",
    "methods": {},
    "version": 1
  },
  "userdoc": {
    "kind": "user",
    "methods": {},
    "version": 1
  }
}